:100000000C9442000C949F020C949F020C949F024B
:100010000C949F020C949F020C949F020C949F02DC
:100020000C949F020C949F020C949F020C949F02CC
:100030000C949F020C949F020C949F020C949F02BC
:100040000C949F020C949F020C949F020C949F02AC
:100050000C949F0200AB00AD800060006D00054273
:1000600000870093000569006D007A00054F00933A
:10007000009F000575007A008700055C009F00ABBB
:100080000005810011241FBECFE5D8E0DEBFCDBF43
:10009000E4E5F0E040E017C0B591A59135912591D8
:1000A000059107FD0CC095918591EF01F92FE82F7F
:1000B00005900D92A217B307D9F7FE0104C01D9257
:1000C000A217B307E1F7E338F40731F70E946C0099
:0800D0000C946A00F894FFCFC4
:1000D8000E941C0260E070E080E090E00E94B9019C
:1000E80060E070E084E090E00E94B90160E070E0B8
:1000F80082E090E00E94FB0161E070E082E090E025
:100108000E94DA0161E070E087E090E00E94DA0185
:1001180061E070E083E090E00E94FB01C1E0D0E084
:1001280080E090E00E947102892BE9F08091AB0099
:100138009091AC00892BB9F42FEF83EC99E0215012
:1001480080409040E1F700C00000D093AC00C0931D
:10015800AB000E944C0282E090E00E9489028FE985
:1001680090E00E943D0280E090E00E947102892B9D
:10017800E9F08091AB009091AC000197B9F42FEFB2
:1001880083EC99E0215080409040E1F700C00000E6
:100198001092AC001092AB000E944C0282E090E0FA
:1001A8000E9459028AE790E00E943D0284E090E0B4
:1001B8000E947102892BE9F08091AB009091AC000C
:1001C800892BB9F42FEF83EC99E0215080409040BF
:1001D800E1F700C00000D093AC00C093AB000E94D0
:1001E8004C0287E090E00E94890283E990E00E9437
:1001F8003D0284E090E00E947102892BE9F0809131
:10020800AB009091AC000197B9F42FEF83EC99E023
:10021800215080409040E1F700C000001092AC00EF
:100228001092AB000E944C0287E090E00E945902B5
:100238008DE690E00E943D0282E090E00E947D02FF
:10024800892BE9F08091AB009091AC00892BB9F42F
:100258002FEF83EC99E0215080409040E1F700C0F7
:100268000000D093AC00C093AB000E944C0283E026
:1002780090E00E94940287E890E00E943D0282E0AC
:1002880090E00E947D02892B09F44ACF8091AB004F
:100298009091AC00019709F043CF2FEF83EC99E0E0
:1002A800215080409040E1F700C000001092AC005F
:1002B8001092AB000E944C0283E090E00E9465021D
:0A02C80080E690E00E943D022BCF7B
:1002D2009BB39F70282F207F922B9BBBC198C39A00
:1002E20035E33A95F1F70000C398EFE3FFE1319768
:1002F200F1F700C000002BB32F70F0E18F9FC00117
:100302001124822B8BBBC39A35E03A95F1F700009A
:10031200C3988FE39FE10197F1F700C000000895B1
:100322009BB39F70282F207F922B9BBBC19AC39AAD
:1003320035E33A95F1F70000C398EFE1F3E0319726
:10034200F1F700C000002BB32F70F0E18F9FC001C6
:100352001124822B8BBBC39A35E33A95F1F7000047
:10036200C3988FE59DE60197F1F700C0000008955C
:100372006115710581F061307105D1F447B321E057
:1003820030E0B90102C0660F771F8A95E2F7CB0110
:10039200842B87BB089547B321E030E0B90102C046
:1003A200660F771F8A95E2F7CB018095842387BB7E
:0203B2000895AC
:1003B4006115710581F061307105D1F444B321E018
:1003C40030E0B90102C0660F771F8A95E2F7CB01CE
:1003D400842B84BB089544B321E030E0B90102C00A
:1003E400660F771F8A95E2F7CB018095842384BB3F
:0203F40008956A
:1003F6006115710581F061307105D1F441B321E0D9
:1004060030E0B90102C0660F771F8A95E2F7CB018B
:10041600842B81BB089541B321E030E0B90102C0CD
:10042600660F771F8A95E2F7CB018095842381BBFF
:02043600089527
:100438008FEF8ABB8FE087BBC2982FEF89EF90E0E0
:10044800215080409040E1F700C0000083E30E9403
:10045800690182E30E94690188E20E9469018CE0D7
:100468000E94690186E00E94690181E00E94690199
:020478000895E5
:10047A00CF93DF93EC018881882331F021960E9483
:0E048A00910189918111FBCFDF91CF910895EF
:1004980081E00E9469018FE39FE10197F1F700C0B5
:0A04A800000080E80E946901089539
:1004B20095B321E030E002C0220F331F8A95E2F7A4
:0804C2002095292325BB0895B4
:1004CA0092B321E030E002C0220F331F8A95E2F78F
:0804DA002095292322BB08959F
:1004E20026B330E0A90102C0559547958A95E2F7F7
:0804F200CA01817099270895E9
:1004FA0020B330E0A90102C0559547958A95E2F7E5
:08050A00CA01817099270895D0
:1005120095B321E030E002C0220F331F8A95E2F743
:06052200292B25BB089502
:1005280092B321E030E002C0220F331F8A95E2F730
:06053800292B22BB0895EF
:04053E000C94000019
:0D0542004C454432206973204F464620008E
:0D054F004C454431206973204F4646200082
:0D055C004C454430206973204F4646200076
:0C0569004C454432206973204F4E2000A6
:0C0575004C454431206973204F4E20009B
:0C0581004C454430206973204F4E200090
:00000001FF
