:100000000C942D000C94F4010C94F4010C94F40164
:100010000C94F4010C94F4010C94F4010C94F4018C
:100020000C94F4010C94F4010C94F4010C94F4017C
:100030000C94F4010C94F4010C94F4010C94F4016C
:100040000C94F4010C94F4010C94F4010C94F4015C
:100050000C94F40100600062800011241FBECFE503
:10006000D8E0DEBFCDBFE4E5F0E040E017C0B591D9
:10007000A59135912591059107FD0CC0959185912C
:10008000EF01F92FE82F05900D92A217B307D9F7CA
:10009000FE0104C01D92A217B307E1F7E935F4078A
:0E00A00031F70E9457000C945500F894FFCFE2
:1000AE0060E070E080E090E00E944B0160E070E064
:1000BE0084E090E00E944B0160E070E082E090E00E
:1000CE000E948D0161E070E082E090E00E946C0180
:1000DE0061E070E087E090E00E946C0161E070E00A
:1000EE0083E090E00E948D0180E090E00E94C601C6
:1000FE00892B09F44EC010926100109260003CC032
:10010E0083E090E00E94BA0182E090E00E94DE015E
:10011E002FEF89E698E1215080409040E1F700C032
:10012E00000082E090E00E94AE0187E090E00E9425
:10013E00DE012FEF89E698E1215080409040E1F7F3
:10014E0000C0000087E090E00E94AE0183E090E0E6
:10015E000E94E9012FEF89E698E1215080409040FE
:10016E00E1F700C00000809160009091610001965F
:10017E00909361008093600084E090E00E94C6013D
:10018E00892B39F482E090E00E94D201892B09F488
:10019E00B7CF84E090E00E94C601892B61F082E027
:1001AE0090E00E94AE0187E090E00E94AE0183E0F5
:1001BE0090E00E94BA0182E090E00E94D201892B69
:1001CE0009F44EC010926100109260003CC082E0B3
:1001DE0090E00E94AE0183E090E00E94E9012FEFD3
:1001EE0089E698E1215080409040E1F700C0000080
:1001FE0083E090E00E94BA0187E090E00E94DE0169
:10020E002FEF89E698E1215080409040E1F700C041
:10021E00000087E090E00E94AE0182E090E00E9434
:10022E00DE012FEF89E698E1215080409040E1F702
:10023E0000C0000080916000909161000196909343
:10024E0061008093600084E090E00E94C601892BDB
:10025E0039F480E090E00E94C601892B09F4B7CFF3
:10026E0084E090E00E94C601892B09F43DCF82E024
:10027E0090E00E94AE0187E090E00E94AE0183E024
:08028E0090E00E94BA0130CF9C
:100296006115710581F061307105D1F447B321E034
:1002A60030E0B90102C0660F771F8A95E2F7CB01ED
:1002B600842B87BB089547B321E030E0B90102C023
:1002C600660F771F8A95E2F7CB018095842387BB5B
:0202D600089589
:1002D8006115710581F061307105D1F444B321E0F5
:1002E80030E0B90102C0660F771F8A95E2F7CB01AB
:1002F800842B84BB089544B321E030E0B90102C0E7
:10030800660F771F8A95E2F7CB018095842384BB1B
:02031800089546
:10031A006115710581F061307105D1F441B321E0B5
:10032A0030E0B90102C0660F771F8A95E2F7CB0168
:10033A00842B81BB089541B321E030E0B90102C0AA
:10034A00660F771F8A95E2F7CB018095842381BBDC
:02035A00089504
:10035C0095B321E030E002C0220F331F8A95E2F7FB
:08036C002095292325BB08950B
:1003740092B321E030E002C0220F331F8A95E2F7E6
:080384002095292322BB0895F6
:10038C0026B330E0A90102C0559547958A95E2F74E
:08039C00CA0181709927089540
:1003A40020B330E0A90102C0559547958A95E2F73C
:0803B400CA0181709927089528
:1003BC0095B321E030E002C0220F331F8A95E2F79B
:0603CC00292B25BB08955A
:1003D20092B321E030E002C0220F331F8A95E2F788
:0603E200292B22BB089547
:0403E8000C94000071
:00000001FF
