:100000000C942A000C94B3000C94B3000C94B3002D
:100010000C94B3000C94B3000C94B3000C94B30094
:100020000C94B3000C94B3000C94B3000C94B30084
:100030000C94B3000C94B3000C94B3000C94B30074
:100040000C94B3000C94B3000C94B3000C94B30064
:100050000C94B30011241FBECFE5D8E0DEBFCDBFA6
:0C0060000E9436000C943400F894FFCF8E
:10006C008FEF8ABB1BBAB898BC988A98A29AA79AA9
:10007C008B9A80E090E00E948500892B29F082E029
:10008C0090E00E949D0004C082E090E00E946D0010
:10009C0084E090E00E948500892B29F087E090E0B5
:1000AC000E949D0004C087E090E00E946D0082E0F9
:1000BC0090E00E949100892B29F083E090E00E944F
:0E00CC00A800D7CF83E090E00E947900D2CF49
:1000DA0095B321E030E002C0220F331F8A95E2F780
:0800EA002095292325BB089590
:1000F20092B321E030E002C0220F331F8A95E2F76B
:080102002095292322BB08957A
:10010A0026B330E0A90102C0559547958A95E2F7D2
:08011A00CA01817099270895C4
:1001220020B330E0A90102C0559547958A95E2F7C0
:08013200CA01817099270895AC
:10013A0095B321E030E002C0220F331F8A95E2F71F
:06014A00292B25BB0895DE
:1001500092B321E030E002C0220F331F8A95E2F70C
:06016000292B22BB0895CB
:040166000C940000F5
:00000001FF
